{
  "abi": [
    {
      "type": "constructor",
      "inputs": [
        {
          "name": "_owner",
          "type": "address",
          "internalType": "address"
        },
        {
          "name": "_token",
          "type": "address",
          "internalType": "contract IERC20"
        },
        {
          "name": "_payPeriodSeconds",
          "type": "uint256",
          "internalType": "uint256"
        }
      ],
      "stateMutability": "nonpayable"
    },
    {
      "type": "function",
      "name": "emergencyWithdraw",
      "inputs": [
        {
          "name": "_to",
          "type": "address",
          "internalType": "address"
        },
        {
          "name": "_amount",
          "type": "uint256",
          "internalType": "uint256"
        }
      ],
      "outputs": [],
      "stateMutability": "nonpayable"
    },
    {
      "type": "function",
      "name": "employeeList",
      "inputs": [
        {
          "name": "",
          "type": "uint256",
          "internalType": "uint256"
        }
      ],
      "outputs": [
        {
          "name": "",
          "type": "address",
          "internalType": "address"
        }
      ],
      "stateMutability": "view"
    },
    {
      "type": "function",
      "name": "employees",
      "inputs": [
        {
          "name": "",
          "type": "address",
          "internalType": "address"
        }
      ],
      "outputs": [
        {
          "name": "monthlySalary",
          "type": "uint256",
          "internalType": "uint256"
        },
        {
          "name": "periodStart",
          "type": "uint256",
          "internalType": "uint256"
        },
        {
          "name": "active",
          "type": "bool",
          "internalType": "bool"
        },
        {
          "name": "withdrawnInPeriod",
          "type": "uint256",
          "internalType": "uint256"
        },
        {
          "name": "outstandingAdvance",
          "type": "uint256",
          "internalType": "uint256"
        },
        {
          "name": "lastAdvancePeriod",
          "type": "uint256",
          "internalType": "uint256"
        }
      ],
      "stateMutability": "view"
    },
    {
      "type": "function",
      "name": "employeesCount",
      "inputs": [],
      "outputs": [
        {
          "name": "",
          "type": "uint256",
          "internalType": "uint256"
        }
      ],
      "stateMutability": "view"
    },
    {
      "type": "function",
      "name": "fund",
      "inputs": [
        {
          "name": "_amount",
          "type": "uint256",
          "internalType": "uint256"
        }
      ],
      "outputs": [],
      "stateMutability": "nonpayable"
    },
    {
      "type": "function",
      "name": "getEmployeeInfo",
      "inputs": [
        {
          "name": "_employee",
          "type": "address",
          "internalType": "address"
        }
      ],
      "outputs": [
        {
          "name": "monthlySalary",
          "type": "uint256",
          "internalType": "uint256"
        },
        {
          "name": "active",
          "type": "bool",
          "internalType": "bool"
        },
        {
          "name": "periodStart",
          "type": "uint256",
          "internalType": "uint256"
        },
        {
          "name": "totalAccrued",
          "type": "uint256",
          "internalType": "uint256"
        },
        {
          "name": "withdrawnInPeriod",
          "type": "uint256",
          "internalType": "uint256"
        },
        {
          "name": "outstandingAdvance",
          "type": "uint256",
          "internalType": "uint256"
        },
        {
          "name": "lastAdvancePeriod",
          "type": "uint256",
          "internalType": "uint256"
        },
        {
          "name": "availableToWithdraw",
          "type": "uint256",
          "internalType": "uint256"
        }
      ],
      "stateMutability": "view"
    },
    {
      "type": "function",
      "name": "owner",
      "inputs": [],
      "outputs": [
        {
          "name": "",
          "type": "address",
          "internalType": "address"
        }
      ],
      "stateMutability": "view"
    },
    {
      "type": "function",
      "name": "pause",
      "inputs": [],
      "outputs": [],
      "stateMutability": "nonpayable"
    },
    {
      "type": "function",
      "name": "paused",
      "inputs": [],
      "outputs": [
        {
          "name": "",
          "type": "bool",
          "internalType": "bool"
        }
      ],
      "stateMutability": "view"
    },
    {
      "type": "function",
      "name": "payPeriodSeconds",
      "inputs": [],
      "outputs": [
        {
          "name": "",
          "type": "uint256",
          "internalType": "uint256"
        }
      ],
      "stateMutability": "view"
    },
    {
      "type": "function",
      "name": "refund",
      "inputs": [
        {
          "name": "_amount",
          "type": "uint256",
          "internalType": "uint256"
        }
      ],
      "outputs": [],
      "stateMutability": "nonpayable"
    },
    {
      "type": "function",
      "name": "registerEmployee",
      "inputs": [
        {
          "name": "_employee",
          "type": "address",
          "internalType": "address"
        },
        {
          "name": "_monthlySalary",
          "type": "uint256",
          "internalType": "uint256"
        }
      ],
      "outputs": [],
      "stateMutability": "nonpayable"
    },
    {
      "type": "function",
      "name": "releaseSalary",
      "inputs": [
        {
          "name": "_employee",
          "type": "address",
          "internalType": "address"
        }
      ],
      "outputs": [],
      "stateMutability": "nonpayable"
    },
    {
      "type": "function",
      "name": "renounceOwnership",
      "inputs": [],
      "outputs": [],
      "stateMutability": "nonpayable"
    },
    {
      "type": "function",
      "name": "requestAdvance",
      "inputs": [
        {
          "name": "_amount",
          "type": "uint256",
          "internalType": "uint256"
        }
      ],
      "outputs": [],
      "stateMutability": "nonpayable"
    },
    {
      "type": "function",
      "name": "token",
      "inputs": [],
      "outputs": [
        {
          "name": "",
          "type": "address",
          "internalType": "contract IERC20"
        }
      ],
      "stateMutability": "view"
    },
    {
      "type": "function",
      "name": "totalFunded",
      "inputs": [],
      "outputs": [
        {
          "name": "",
          "type": "uint256",
          "internalType": "uint256"
        }
      ],
      "stateMutability": "view"
    },
    {
      "type": "function",
      "name": "totalRefunded",
      "inputs": [],
      "outputs": [
        {
          "name": "",
          "type": "uint256",
          "internalType": "uint256"
        }
      ],
      "stateMutability": "view"
    },
    {
      "type": "function",
      "name": "totalWithdrawn",
      "inputs": [],
      "outputs": [
        {
          "name": "",
          "type": "uint256",
          "internalType": "uint256"
        }
      ],
      "stateMutability": "view"
    },
    {
      "type": "function",
      "name": "transferOwnership",
      "inputs": [
        {
          "name": "newOwner",
          "type": "address",
          "internalType": "address"
        }
      ],
      "outputs": [],
      "stateMutability": "nonpayable"
    },
    {
      "type": "function",
      "name": "unpause",
      "inputs": [],
      "outputs": [],
      "stateMutability": "nonpayable"
    },
    {
      "type": "function",
      "name": "updateEmployee",
      "inputs": [
        {
          "name": "_employee",
          "type": "address",
          "internalType": "address"
        },
        {
          "name": "_monthlySalary",
          "type": "uint256",
          "internalType": "uint256"
        },
        {
          "name": "_active",
          "type": "bool",
          "internalType": "bool"
        }
      ],
      "outputs": [],
      "stateMutability": "nonpayable"
    },
    {
      "type": "function",
      "name": "withdraw",
      "inputs": [],
      "outputs": [],
      "stateMutability": "nonpayable"
    },
    {
      "type": "event",
      "name": "AdvanceRepaid",
      "inputs": [
        {
          "name": "employee",
          "type": "address",
          "indexed": true,
          "internalType": "address"
        },
        {
          "name": "amountRepaid",
          "type": "uint256",
          "indexed": false,
          "internalType": "uint256"
        },
        {
          "name": "remainingAdvance",
          "type": "uint256",
          "indexed": false,
          "internalType": "uint256"
        }
      ],
      "anonymous": false
    },
    {
      "type": "event",
      "name": "AdvanceRequested",
      "inputs": [
        {
          "name": "employee",
          "type": "address",
          "indexed": true,
          "internalType": "address"
        },
        {
          "name": "amount",
          "type": "uint256",
          "indexed": false,
          "internalType": "uint256"
        }
      ],
      "anonymous": false
    },
    {
      "type": "event",
      "name": "EmployeeRegistered",
      "inputs": [
        {
          "name": "employee",
          "type": "address",
          "indexed": true,
          "internalType": "address"
        },
        {
          "name": "monthlySalary",
          "type": "uint256",
          "indexed": false,
          "internalType": "uint256"
        },
        {
          "name": "periodStart",
          "type": "uint256",
          "indexed": false,
          "internalType": "uint256"
        }
      ],
      "anonymous": false
    },
    {
      "type": "event",
      "name": "EmployeeUpdated",
      "inputs": [
        {
          "name": "employee",
          "type": "address",
          "indexed": true,
          "internalType": "address"
        },
        {
          "name": "monthlySalary",
          "type": "uint256",
          "indexed": false,
          "internalType": "uint256"
        },
        {
          "name": "active",
          "type": "bool",
          "indexed": false,
          "internalType": "bool"
        }
      ],
      "anonymous": false
    },
    {
      "type": "event",
      "name": "Funded",
      "inputs": [
        {
          "name": "by",
          "type": "address",
          "indexed": true,
          "internalType": "address"
        },
        {
          "name": "amount",
          "type": "uint256",
          "indexed": false,
          "internalType": "uint256"
        }
      ],
      "anonymous": false
    },
    {
      "type": "event",
      "name": "OwnershipTransferred",
      "inputs": [
        {
          "name": "previousOwner",
          "type": "address",
          "indexed": true,
          "internalType": "address"
        },
        {
          "name": "newOwner",
          "type": "address",
          "indexed": true,
          "internalType": "address"
        }
      ],
      "anonymous": false
    },
    {
      "type": "event",
      "name": "Paused",
      "inputs": [
        {
          "name": "account",
          "type": "address",
          "indexed": false,
          "internalType": "address"
        }
      ],
      "anonymous": false
    },
    {
      "type": "event",
      "name": "PausedEvent",
      "inputs": [
        {
          "name": "account",
          "type": "address",
          "indexed": false,
          "internalType": "address"
        }
      ],
      "anonymous": false
    },
    {
      "type": "event",
      "name": "Refunded",
      "inputs": [
        {
          "name": "to",
          "type": "address",
          "indexed": true,
          "internalType": "address"
        },
        {
          "name": "amount",
          "type": "uint256",
          "indexed": false,
          "internalType": "uint256"
        }
      ],
      "anonymous": false
    },
    {
      "type": "event",
      "name": "Unpaused",
      "inputs": [
        {
          "name": "account",
          "type": "address",
          "indexed": false,
          "internalType": "address"
        }
      ],
      "anonymous": false
    },
    {
      "type": "event",
      "name": "UnpausedEvent",
      "inputs": [
        {
          "name": "account",
          "type": "address",
          "indexed": false,
          "internalType": "address"
        }
      ],
      "anonymous": false
    },
    {
      "type": "event",
      "name": "Withdrawn",
      "inputs": [
        {
          "name": "employee",
          "type": "address",
          "indexed": true,
          "internalType": "address"
        },
        {
          "name": "amount",
          "type": "uint256",
          "indexed": false,
          "internalType": "uint256"
        }
      ],
      "anonymous": false
    },
    {
      "type": "error",
      "name": "EnforcedPause",
      "inputs": []
    },
    {
      "type": "error",
      "name": "ExpectedPause",
      "inputs": []
    },
    {
      "type": "error",
      "name": "OwnableInvalidOwner",
      "inputs": [
        {
          "name": "owner",
          "type": "address",
          "internalType": "address"
        }
      ]
    },
    {
      "type": "error",
      "name": "OwnableUnauthorizedAccount",
      "inputs": [
        {
          "name": "account",
          "type": "address",
          "internalType": "address"
        }
      ]
    },
    {
      "type": "error",
      "name": "ReentrancyGuardReentrantCall",
      "inputs": []
    },
    {
      "type": "error",
      "name": "SafeERC20FailedOperation",
      "inputs": [
        {
          "name": "token",
          "type": "address",
          "internalType": "address"
        }
      ]
    }
  ],
  "bytecode": {
    "object": "0x60c060405234801561000f575f5ffd5b506040516134b73803806134b783398181016040528101906100319190610389565b825f73ffffffffffffffffffffffffffffffffffffffff168173ffffffffffffffffffffffffffffffffffffffff16036100a2575f6040517f1e4fbdf700000000000000000000000000000000000000000000000000000000815260040161009991906103e8565b60405180910390fd5b6100b1816101ca60201b60201c565b5060016100d06100c561028b60201b60201c565b6102b460201b60201c565b5f01819055505f73ffffffffffffffffffffffffffffffffffffffff168273ffffffffffffffffffffffffffffffffffffffff1603610144576040517f08c379a000000000000000000000000000000000000000000000000000000000815260040161013b9061045b565b60405180910390fd5b5f8111610186576040517f08c379a000000000000000000000000000000000000000000000000000000000815260040161017d906104c3565b60405180910390fd5b8173ffffffffffffffffffffffffffffffffffffffff1660808173ffffffffffffffffffffffffffffffffffffffff16815250508060a081815250505050506104e1565b5f5f5f9054906101000a900473ffffffffffffffffffffffffffffffffffffffff169050815f5f6101000a81548173ffffffffffffffffffffffffffffffffffffffff021916908373ffffffffffffffffffffffffffffffffffffffff1602179055508173ffffffffffffffffffffffffffffffffffffffff168173ffffffffffffffffffffffffffffffffffffffff167f8be0079c531659141344cd1fd0a4f28419497f9722a3daafe3b4186f6b6457e060405160405180910390a35050565b5f7f9b779b17422d0df92223018b32b4d1fa46e071723d6817e2486d003becc55f005f1b905090565b5f819050919050565b5f5ffd5b5f73ffffffffffffffffffffffffffffffffffffffff82169050919050565b5f6102ea826102c1565b9050919050565b6102fa816102e0565b8114610304575f5ffd5b50565b5f81519050610315816102f1565b92915050565b5f610325826102e0565b9050919050565b6103358161031b565b811461033f575f5ffd5b50565b5f815190506103508161032c565b92915050565b5f819050919050565b61036881610356565b8114610372575f5ffd5b50565b5f815190506103838161035f565b92915050565b5f5f5f606084860312156103a05761039f6102bd565b5b5f6103ad86828701610307565b93505060206103be86828701610342565b92505060406103cf86828701610375565b9150509250925092565b6103e2816102e0565b82525050565b5f6020820190506103fb5f8301846103d9565b92915050565b5f82825260208201905092915050565b7f7a65726f20746f6b656e000000000000000000000000000000000000000000005f82015250565b5f610445600a83610401565b915061045082610411565b602082019050919050565b5f6020820190508181035f83015261047281610439565b9050919050565b7f706179506572696f643e300000000000000000000000000000000000000000005f82015250565b5f6104ad600b83610401565b91506104b882610479565b602082019050919050565b5f6020820190508181035f8301526104da816104a1565b9050919050565b60805160a051612f5a61055d5f395f818161131f01528181611e2701526121d001525f8181610529015281816106ed015281816108400152818161099301528181610bac01528181610c890152818161112a0152818161127d0152818161163501528181611752015281816118700152611c910152612f5a5ff3fe608060405234801561000f575f5ffd5b506004361061014b575f3560e01c806395ccea67116100c1578063ca1d209d1161007a578063ca1d209d1461031e578063ca6828971461033a578063d067894714610356578063d90829621461038b578063f2fde38b146103a9578063fc0c546a146103c55761014b565b806395ccea671461025c5780639abb474214610278578063ad044f4914610296578063bdd4a068146102b4578063c3b2d07a146102d2578063c70e1972146103025761014b565b80635ac09b2b116101135780635ac09b2b146101b95780635c975abb146101f0578063715018a61461020e5780638456cb59146102185780638da5cb5b1461022257806390b70b90146102405761014b565b806311e953351461014f578063278ecde11461016b5780633ccfd60b146101875780633f4ba83a146101915780634b3197131461019b575b5f5ffd5b6101696004803603810190610164919061246e565b6103e3565b005b610185600480360381019061018091906124cc565b6107e3565b005b61018f610a32565b005b610199610d2a565b005b6101a3610d73565b6040516101b09190612506565b60405180910390f35b6101d360048036038101906101ce919061246e565b610d79565b6040516101e7989796959493929190612539565b60405180910390f35b6101f8610e52565b60405161020591906125b5565b60405180910390f35b610216610e67565b005b610220610e7a565b005b61022a610ec3565b60405161023791906125dd565b60405180910390f35b61025a60048036038101906102559190612620565b610eea565b005b61027660048036038101906102719190612670565b611067565b005b61028061131d565b60405161028d9190612506565b60405180910390f35b61029e611341565b6040516102ab9190612506565b60405180910390f35b6102bc611347565b6040516102c99190612506565b60405180910390f35b6102ec60048036038101906102e791906124cc565b611353565b6040516102f991906125dd565b60405180910390f35b61031c600480360381019061031791906124cc565b61138e565b005b610338600480360381019061033391906124cc565b6117f6565b005b610354600480360381019061034f9190612670565b61190e565b005b610370600480360381019061036b919061246e565b611bc1565b604051610382969594939291906126ae565b60405180910390f35b610393611c05565b6040516103a09190612506565b60405180910390f35b6103c360048036038101906103be919061246e565b611c0b565b005b6103cd611c8f565b6040516103da9190612768565b60405180910390f35b6103eb611cb3565b6103f3611cd5565b6103fb611d5c565b5f73ffffffffffffffffffffffffffffffffffffffff168173ffffffffffffffffffffffffffffffffffffffff1603610469576040517f08c379a0000000000000000000000000000000000000000000000000000000008152600401610460906127db565b60405180910390fd5b5f60015f8373ffffffffffffffffffffffffffffffffffffffff1673ffffffffffffffffffffffffffffffffffffffff1681526020019081526020015f2090505f8160010154036104ef576040517f08c379a00000000000000000000000000000000000000000000000000000000081526004016104e690612843565b60405180910390fd5b5f6104f983611d9d565b90505f5f905082600301548211156105225782600301548261051b919061288e565b9050610526565b5f90505b5f7f000000000000000000000000000000000000000000000000000000000000000073ffffffffffffffffffffffffffffffffffffffff166370a08231306040518263ffffffff1660e01b815260040161058091906125dd565b602060405180830381865afa15801561059b573d5f5f3e3d5ffd5b505050506040513d601f19601f820116820180604052508101906105bf91906128d5565b90505f846004015411156106c3578360040154821061064d575f8460040154905080836105ec919061288e565b92505f85600401819055508573ffffffffffffffffffffffffffffffffffffffff167f07a5bcc98f7532591e8d0ea2325b51ff311671be0919df20722d8aa9ac16099e825f60405161063f929190612939565b60405180910390a2506106c2565b5f829050808560040154610661919061288e565b85600401819055505f92508573ffffffffffffffffffffffffffffffffffffffff167f07a5bcc98f7532591e8d0ea2325b51ff311671be0919df20722d8aa9ac16099e8287600401546040516106b8929190612960565b60405180910390a2505b5b5f821180156106d157505f81115b15610799575f829050818111156106e6578190505b61073186827f000000000000000000000000000000000000000000000000000000000000000073ffffffffffffffffffffffffffffffffffffffff16611e6d9092919063ffffffff16565b8060055f8282546107429190612987565b925050819055508573ffffffffffffffffffffffffffffffffffffffff167f7084f5476618d8e60b11ef0d7d3f06914655adb8793e28ff7f018d4c76d505d58260405161078f9190612506565b60405180910390a2505b4284600101819055505f84600301819055507fffffffffffffffffffffffffffffffffffffffffffffffffffffffffffffffff8460050181905550505050506107e0611ec0565b50565b6107eb611cb3565b6107f3611cd5565b6107fb611d5c565b5f811161083d576040517f08c379a000000000000000000000000000000000000000000000000000000000815260040161083490612a04565b60405180910390fd5b5f7f000000000000000000000000000000000000000000000000000000000000000073ffffffffffffffffffffffffffffffffffffffff166370a08231306040518263ffffffff1660e01b815260040161089791906125dd565b602060405180830381865afa1580156108b2573d5f5f3e3d5ffd5b505050506040513d601f19601f820116820180604052508101906108d691906128d5565b90508082111561091b576040517f08c379a000000000000000000000000000000000000000000000000000000000815260040161091290612a6c565b60405180910390fd5b5f610924611eda565b9050828183610933919061288e565b1015610974576040517f08c379a000000000000000000000000000000000000000000000000000000000815260040161096b90612ad4565b60405180910390fd5b8260065f8282546109859190612987565b925050819055506109d733847f000000000000000000000000000000000000000000000000000000000000000073ffffffffffffffffffffffffffffffffffffffff16611e6d9092919063ffffffff16565b3373ffffffffffffffffffffffffffffffffffffffff167fd7dee2702d63ad89917b6a4da9981c90c4d24f8c2bdfd64c604ecae57d8d065184604051610a1d9190612506565b60405180910390a25050610a2f611ec0565b50565b610a3a611cb3565b60015f3373ffffffffffffffffffffffffffffffffffffffff1673ffffffffffffffffffffffffffffffffffffffff1681526020019081526020015f206002015f9054906101000a900460ff16610ac6576040517f08c379a0000000000000000000000000000000000000000000000000000000008152600401610abd90612b3c565b60405180910390fd5b610ace611d5c565b5f3390505f60015f8373ffffffffffffffffffffffffffffffffffffffff1673ffffffffffffffffffffffffffffffffffffffff1681526020019081526020015f2090505f610b1c83611d9d565b90505f5f905082600401548360030154610b369190612987565b821115610b63578260040154836003015483610b52919061288e565b610b5c919061288e565b9050610b67565b5f90505b5f8111610ba9576040517f08c379a0000000000000000000000000000000000000000000000000000000008152600401610ba090612ba4565b60405180910390fd5b5f7f000000000000000000000000000000000000000000000000000000000000000073ffffffffffffffffffffffffffffffffffffffff166370a08231306040518263ffffffff1660e01b8152600401610c0391906125dd565b602060405180830381865afa158015610c1e573d5f5f3e3d5ffd5b505050506040513d601f19601f82011682018060405250810190610c4291906128d5565b905080821115610c50578091505b81846003015f828254610c639190612987565b925050819055508160055f828254610c7b9190612987565b92505081905550610ccd85837f000000000000000000000000000000000000000000000000000000000000000073ffffffffffffffffffffffffffffffffffffffff16611e6d9092919063ffffffff16565b8473ffffffffffffffffffffffffffffffffffffffff167f7084f5476618d8e60b11ef0d7d3f06914655adb8793e28ff7f018d4c76d505d583604051610d139190612506565b60405180910390a25050505050610d28611ec0565b565b610d32611cd5565b610d3a611ff5565b7f0fb94798166272486ac3f3b109fdc6b92c586c8d8d7c4c8288f1f21ea36edc9833604051610d6991906125dd565b60405180910390a1565b60055481565b5f5f5f5f5f5f5f5f5f60015f8b73ffffffffffffffffffffffffffffffffffffffff1673ffffffffffffffffffffffffffffffffffffffff1681526020019081526020015f209050805f01549850806002015f9054906101000a900460ff16975080600101549650610dea8a611d9d565b955080600301549450806004015493508060050154925080600401548160030154610e159190612987565b861115610e42578060040154816003015487610e31919061288e565b610e3b919061288e565b9150610e46565b5f91505b50919395975091939597565b5f5f60149054906101000a900460ff16905090565b610e6f611cd5565b610e785f612056565b565b610e82611cd5565b610e8a612117565b7f34ff8c673d3f4966cacd4025e5a45c45764d0e9f9ebc866091e4363685a6c16c33604051610eb991906125dd565b60405180910390a1565b5f5f5f9054906101000a900473ffffffffffffffffffffffffffffffffffffffff16905090565b610ef2611cd5565b610efa611d5c565b5f73ffffffffffffffffffffffffffffffffffffffff168373ffffffffffffffffffffffffffffffffffffffff1603610f68576040517f08c379a0000000000000000000000000000000000000000000000000000000008152600401610f5f906127db565b60405180910390fd5b5f60015f8573ffffffffffffffffffffffffffffffffffffffff1673ffffffffffffffffffffffffffffffffffffffff1681526020019081526020015f2090505f816001015403610fee576040517f08c379a0000000000000000000000000000000000000000000000000000000008152600401610fe590612843565b60405180910390fd5b82815f018190555081816002015f6101000a81548160ff0219169083151502179055508373ffffffffffffffffffffffffffffffffffffffff167f1cc7945d67531eb4403d366d82f5f5206688b44182ee1c6939c1eb19e6d781098484604051611059929190612bc2565b60405180910390a250505050565b61106f611cb3565b611077611cd5565b5f73ffffffffffffffffffffffffffffffffffffffff168273ffffffffffffffffffffffffffffffffffffffff16036110e5576040517f08c379a00000000000000000000000000000000000000000000000000000000081526004016110dc906127db565b60405180910390fd5b5f8111611127576040517f08c379a000000000000000000000000000000000000000000000000000000000815260040161111e90612a04565b60405180910390fd5b5f7f000000000000000000000000000000000000000000000000000000000000000073ffffffffffffffffffffffffffffffffffffffff166370a08231306040518263ffffffff1660e01b815260040161118191906125dd565b602060405180830381865afa15801561119c573d5f5f3e3d5ffd5b505050506040513d601f19601f820116820180604052508101906111c091906128d5565b905080821115611205576040517f08c379a00000000000000000000000000000000000000000000000000000000081526004016111fc90612a6c565b60405180910390fd5b5f61120e611eda565b905082818361121d919061288e565b101561125e576040517f08c379a000000000000000000000000000000000000000000000000000000000815260040161125590612c33565b60405180910390fd5b8260065f82825461126f9190612987565b925050819055506112c184847f000000000000000000000000000000000000000000000000000000000000000073ffffffffffffffffffffffffffffffffffffffff16611e6d9092919063ffffffff16565b8373ffffffffffffffffffffffffffffffffffffffff167fd7dee2702d63ad89917b6a4da9981c90c4d24f8c2bdfd64c604ecae57d8d0651846040516113079190612506565b60405180910390a25050611319611ec0565b5050565b7f000000000000000000000000000000000000000000000000000000000000000081565b60045481565b5f600280549050905090565b60028181548110611362575f80fd5b905f5260205f20015f915054906101000a900473ffffffffffffffffffffffffffffffffffffffff1681565b611396611cb3565b60015f3373ffffffffffffffffffffffffffffffffffffffff1673ffffffffffffffffffffffffffffffffffffffff1681526020019081526020015f206002015f9054906101000a900460ff16611422576040517f08c379a000000000000000000000000000000000000000000000000000000000815260040161141990612b3c565b60405180910390fd5b61142a611d5c565b5f811161146c576040517f08c379a000000000000000000000000000000000000000000000000000000000815260040161146390612a04565b60405180910390fd5b5f3390505f60015f8373ffffffffffffffffffffffffffffffffffffffff1673ffffffffffffffffffffffffffffffffffffffff1681526020019081526020015f2090505f8160010154036114f6576040517f08c379a00000000000000000000000000000000000000000000000000000000081526004016114ed90612843565b60405180910390fd5b5f61150083611d9d565b90505f5f90508260040154836003015461151a9190612987565b821115611547578260040154836003015483611536919061288e565b611540919061288e565b905061154b565b5f90505b5f811161158d576040517f08c379a000000000000000000000000000000000000000000000000000000000815260040161158490612c9b565b60405180910390fd5b5f60028261159b9190612ce6565b9050808611156115e0576040517f08c379a00000000000000000000000000000000000000000000000000000000081526004016115d790612d60565b60405180910390fd5b5f6115ea86612179565b905080856005015403611632576040517f08c379a000000000000000000000000000000000000000000000000000000000815260040161162990612dc8565b60405180910390fd5b5f7f000000000000000000000000000000000000000000000000000000000000000073ffffffffffffffffffffffffffffffffffffffff166370a08231306040518263ffffffff1660e01b815260040161168c91906125dd565b602060405180830381865afa1580156116a7573d5f5f3e3d5ffd5b505050506040513d601f19601f820116820180604052508101906116cb91906128d5565b905080881115611710576040517f08c379a000000000000000000000000000000000000000000000000000000000815260040161170790612e30565b60405180910390fd5b87866004015f8282546117239190612987565b925050819055508186600501819055508760055f8282546117449190612987565b9250508190555061179687897f000000000000000000000000000000000000000000000000000000000000000073ffffffffffffffffffffffffffffffffffffffff16611e6d9092919063ffffffff16565b8673ffffffffffffffffffffffffffffffffffffffff167f19a703b7248cc8f4116eef5d65eb2a9b4a83bd8d37c962f33d021f019278075b896040516117dc9190612506565b60405180910390a2505050505050506117f3611ec0565b50565b6117fe611cb3565b611806611cd5565b61180e611d5c565b5f8111611850576040517f08c379a000000000000000000000000000000000000000000000000000000000815260040161184790612a04565b60405180910390fd5b8060045f8282546118619190612987565b925050819055506118b53330837f000000000000000000000000000000000000000000000000000000000000000073ffffffffffffffffffffffffffffffffffffffff16612212909392919063ffffffff16565b3373ffffffffffffffffffffffffffffffffffffffff167f5af8184bef8e4b45eb9f6ed7734d04da38ced226495548f46e0c8ff8d7d9a524826040516118fb9190612506565b60405180910390a261190b611ec0565b50565b611916611cd5565b61191e611d5c565b5f73ffffffffffffffffffffffffffffffffffffffff168273ffffffffffffffffffffffffffffffffffffffff160361198c576040517f08c379a0000000000000000000000000000000000000000000000000000000008152600401611983906127db565b60405180910390fd5b5f81116119ce576040517f08c379a00000000000000000000000000000000000000000000000000000000081526004016119c590612e98565b60405180910390fd5b5f60015f8473ffffffffffffffffffffffffffffffffffffffff1673ffffffffffffffffffffffffffffffffffffffff1681526020019081526020015f20905060035f8473ffffffffffffffffffffffffffffffffffffffff1673ffffffffffffffffffffffffffffffffffffffff1681526020019081526020015f205f9054906101000a900460ff16611b4457600283908060018154018082558091505060019003905f5260205f20015f9091909190916101000a81548173ffffffffffffffffffffffffffffffffffffffff021916908373ffffffffffffffffffffffffffffffffffffffff160217905550600160035f8573ffffffffffffffffffffffffffffffffffffffff1673ffffffffffffffffffffffffffffffffffffffff1681526020019081526020015f205f6101000a81548160ff0219169083151502179055504281600101819055507fffffffffffffffffffffffffffffffffffffffffffffffffffffffffffffffff81600501819055505b81815f01819055506001816002015f6101000a81548160ff0219169083151502179055508273ffffffffffffffffffffffffffffffffffffffff167f3471bd00dc2641caa82cce60672c0464bbf8691deb24e9cee3b4f9ba616f6fdd838360010154604051611bb4929190612960565b60405180910390a2505050565b6001602052805f5260405f205f91509050805f015490806001015490806002015f9054906101000a900460ff16908060030154908060040154908060050154905086565b60065481565b611c13611cd5565b5f73ffffffffffffffffffffffffffffffffffffffff168173ffffffffffffffffffffffffffffffffffffffff1603611c83575f6040517f1e4fbdf7000000000000000000000000000000000000000000000000000000008152600401611c7a91906125dd565b60405180910390fd5b611c8c81612056565b50565b7f000000000000000000000000000000000000000000000000000000000000000081565b611cbb612267565b6002611ccd611cc86122a8565b6122d1565b5f0181905550565b611cdd6122da565b73ffffffffffffffffffffffffffffffffffffffff16611cfb610ec3565b73ffffffffffffffffffffffffffffffffffffffff1614611d5a57611d1e6122da565b6040517f118cdaa7000000000000000000000000000000000000000000000000000000008152600401611d5191906125dd565b60405180910390fd5b565b611d64610e52565b15611d9b576040517fd93c066500000000000000000000000000000000000000000000000000000000815260040160405180910390fd5b565b5f5f60015f8473ffffffffffffffffffffffffffffffffffffffff1673ffffffffffffffffffffffffffffffffffffffff1681526020019081526020015f2090505f81600101541480611df257505f815f0154145b15611e00575f915050611e68565b5f816001015442611e11919061288e565b90505f8103611e24575f92505050611e68565b5f7f000000000000000000000000000000000000000000000000000000000000000082845f0154611e559190612eb6565b611e5f9190612ce6565b90508093505050505b919050565b611e7a83838360016122e1565b611ebb57826040517f5274afe7000000000000000000000000000000000000000000000000000000008152600401611eb291906125dd565b60405180910390fd5b505050565b6001611ed2611ecd6122a8565b6122d1565b5f0181905550565b5f5f90505f5f90505b600280549050811015611ff1575f60028281548110611f0557611f04612ef7565b5b905f5260205f20015f9054906101000a900473ffffffffffffffffffffffffffffffffffffffff1690505f60015f8373ffffffffffffffffffffffffffffffffffffffff1673ffffffffffffffffffffffffffffffffffffffff1681526020019081526020015f209050806002015f9054906101000a900460ff16611f8b575050611fe4565b5f611f9583611d9d565b90505f5f90508260030154821115611fbe57826003015482611fb7919061288e565b9050611fc2565b5f90505b826004015481611fd29190612987565b86611fdd9190612987565b9550505050505b8080600101915050611ee3565b5090565b611ffd612343565b5f5f60146101000a81548160ff0219169083151502179055507f5db9ee0a495bf2e6ff9c91a7834c1ba4fdd244a5e8aa4e537bd38aeae4b073aa61203f6122da565b60405161204c91906125dd565b60405180910390a1565b5f5f5f9054906101000a900473ffffffffffffffffffffffffffffffffffffffff169050815f5f6101000a81548173ffffffffffffffffffffffffffffffffffffffff021916908373ffffffffffffffffffffffffffffffffffffffff1602179055508173ffffffffffffffffffffffffffffffffffffffff168173ffffffffffffffffffffffffffffffffffffffff167f8be0079c531659141344cd1fd0a4f28419497f9722a3daafe3b4186f6b6457e060405160405180910390a35050565b61211f611d5c565b60015f60146101000a81548160ff0219169083151502179055507f62e78cea01bee320cd4e420270b5ea74000d11b0c9f74754ebdbfc544b05a2586121626122da565b60405161216f91906125dd565b60405180910390a1565b5f5f60015f8473ffffffffffffffffffffffffffffffffffffffff1673ffffffffffffffffffffffffffffffffffffffff1681526020019081526020015f2090505f8160010154036121ce575f91505061220d565b7f00000000000000000000000000000000000000000000000000000000000000008160010154426121ff919061288e565b6122099190612ce6565b9150505b919050565b612220848484846001612383565b61226157836040517f5274afe700000000000000000000000000000000000000000000000000000000815260040161225891906125dd565b60405180910390fd5b50505050565b61226f6123f4565b156122a6576040517f3ee5aeb500000000000000000000000000000000000000000000000000000000815260040160405180910390fd5b565b5f7f9b779b17422d0df92223018b32b4d1fa46e071723d6817e2486d003becc55f005f1b905090565b5f819050919050565b5f33905090565b5f5f63a9059cbb60e01b9050604051815f525f1960601c86166004528460245260205f60445f5f8b5af1925060015f51148316612335578383151615612329573d5f823e3d81fd5b5f873b113d1516831692505b806040525050949350505050565b61234b610e52565b612381576040517f8dfc202b00000000000000000000000000000000000000000000000000000000815260040160405180910390fd5b565b5f5f6323b872dd60e01b9050604051815f525f1960601c87166004525f1960601c86166024528460445260205f60645f5f8c5af1925060015f511483166123e15783831516156123d5573d5f823e3d81fd5b5f883b113d1516831692505b806040525f606052505095945050505050565b5f60026124076124026122a8565b6122d1565b5f015414905090565b5f5ffd5b5f73ffffffffffffffffffffffffffffffffffffffff82169050919050565b5f61243d82612414565b9050919050565b61244d81612433565b8114612457575f5ffd5b50565b5f8135905061246881612444565b92915050565b5f6020828403121561248357612482612410565b5b5f6124908482850161245a565b91505092915050565b5f819050919050565b6124ab81612499565b81146124b5575f5ffd5b50565b5f813590506124c6816124a2565b92915050565b5f602082840312156124e1576124e0612410565b5b5f6124ee848285016124b8565b91505092915050565b61250081612499565b82525050565b5f6020820190506125195f8301846124f7565b92915050565b5f8115159050919050565b6125338161251f565b82525050565b5f6101008201905061254d5f83018b6124f7565b61255a602083018a61252a565b61256760408301896124f7565b61257460608301886124f7565b61258160808301876124f7565b61258e60a08301866124f7565b61259b60c08301856124f7565b6125a860e08301846124f7565b9998505050505050505050565b5f6020820190506125c85f83018461252a565b92915050565b6125d781612433565b82525050565b5f6020820190506125f05f8301846125ce565b92915050565b6125ff8161251f565b8114612609575f5ffd5b50565b5f8135905061261a816125f6565b92915050565b5f5f5f6060848603121561263757612636612410565b5b5f6126448682870161245a565b9350506020612655868287016124b8565b92505060406126668682870161260c565b9150509250925092565b5f5f6040838503121561268657612685612410565b5b5f6126938582860161245a565b92505060206126a4858286016124b8565b9150509250929050565b5f60c0820190506126c15f8301896124f7565b6126ce60208301886124f7565b6126db604083018761252a565b6126e860608301866124f7565b6126f560808301856124f7565b61270260a08301846124f7565b979650505050505050565b5f819050919050565b5f61273061272b61272684612414565b61270d565b612414565b9050919050565b5f61274182612716565b9050919050565b5f61275282612737565b9050919050565b61276281612748565b82525050565b5f60208201905061277b5f830184612759565b92915050565b5f82825260208201905092915050565b7f7a65726f206164647200000000000000000000000000000000000000000000005f82015250565b5f6127c5600983612781565b91506127d082612791565b602082019050919050565b5f6020820190508181035f8301526127f2816127b9565b9050919050565b7f6e6f7420726567697374657265640000000000000000000000000000000000005f82015250565b5f61282d600e83612781565b9150612838826127f9565b602082019050919050565b5f6020820190508181035f83015261285a81612821565b9050919050565b7f4e487b71000000000000000000000000000000000000000000000000000000005f52601160045260245ffd5b5f61289882612499565b91506128a383612499565b92508282039050818111156128bb576128ba612861565b5b92915050565b5f815190506128cf816124a2565b92915050565b5f602082840312156128ea576128e9612410565b5b5f6128f7848285016128c1565b91505092915050565b5f819050919050565b5f61292361291e61291984612900565b61270d565b612499565b9050919050565b61293381612909565b82525050565b5f60408201905061294c5f8301856124f7565b612959602083018461292a565b9392505050565b5f6040820190506129735f8301856124f7565b61298060208301846124f7565b9392505050565b5f61299182612499565b915061299c83612499565b92508282019050808211156129b4576129b3612861565b5b92915050565b7f616d6f756e743e300000000000000000000000000000000000000000000000005f82015250565b5f6129ee600883612781565b91506129f9826129ba565b602082019050919050565b5f6020820190508181035f830152612a1b816129e2565b9050919050565b7f616d6f756e743e62616c616e63650000000000000000000000000000000000005f82015250565b5f612a56600e83612781565b9150612a6182612a22565b602082019050919050565b5f6020820190508181035f830152612a8381612a4a565b9050919050565b7f696e73756666696369656e7420667265652066756e64730000000000000000005f82015250565b5f612abe601783612781565b9150612ac982612a8a565b602082019050919050565b5f6020820190508181035f830152612aeb81612ab2565b9050919050565b7f6e6f742061637469766520656d706c6f796565000000000000000000000000005f82015250565b5f612b26601383612781565b9150612b3182612af2565b602082019050919050565b5f6020820190508181035f830152612b5381612b1a565b9050919050565b7f6e6f20617661696c61626c6520746f20776974686472617700000000000000005f82015250565b5f612b8e601883612781565b9150612b9982612b5a565b602082019050919050565b5f6020820190508181035f830152612bbb81612b82565b9050919050565b5f604082019050612bd55f8301856124f7565b612be2602083018461252a565b9392505050565b7f6578636565647320667265652066756e647300000000000000000000000000005f82015250565b5f612c1d601283612781565b9150612c2882612be9565b602082019050919050565b5f6020820190508181035f830152612c4a81612c11565b9050919050565b7f6e6f206163637275656420746f20616476616e63652066726f6d0000000000005f82015250565b5f612c85601a83612781565b9150612c9082612c51565b602082019050919050565b5f6020820190508181035f830152612cb281612c79565b9050919050565b7f4e487b71000000000000000000000000000000000000000000000000000000005f52601260045260245ffd5b5f612cf082612499565b9150612cfb83612499565b925082612d0b57612d0a612cb9565b5b828204905092915050565b7f6578636565647320353025206f662063757272656e7420617661696c61626c655f82015250565b5f612d4a602083612781565b9150612d5582612d16565b602082019050919050565b5f6020820190508181035f830152612d7781612d3e565b9050919050565b7f616476616e636520616c7265616479207468697320706572696f6400000000005f82015250565b5f612db2601b83612781565b9150612dbd82612d7e565b602082019050919050565b5f6020820190508181035f830152612ddf81612da6565b9050919050565b7f696e73756666696369656e7420636f6e74726163742066756e647300000000005f82015250565b5f612e1a601b83612781565b9150612e2582612de6565b602082019050919050565b5f6020820190508181035f830152612e4781612e0e565b9050919050565b7f73616c6172793e300000000000000000000000000000000000000000000000005f82015250565b5f612e82600883612781565b9150612e8d82612e4e565b602082019050919050565b5f6020820190508181035f830152612eaf81612e76565b9050919050565b5f612ec082612499565b9150612ecb83612499565b9250828202612ed981612499565b91508282048414831517612ef057612eef612861565b5b5092915050565b7f4e487b71000000000000000000000000000000000000000000000000000000005f52603260045260245ffdfea26469706673582212208d164dd816aaf4c3de184629400f35d740462be36403b4dbeb31b6579cdeb4f664736f6c634300081e0033",
    "linkReferences": {}
  },
  "methodIdentifiers": {
    "emergencyWithdraw(address,uint256)": "95ccea67",
    "employeeList(uint256)": "c3b2d07a",
    "employees(address)": "d0678947",
    "employeesCount()": "bdd4a068",
    "fund(uint256)": "ca1d209d",
    "getEmployeeInfo(address)": "5ac09b2b",
    "owner()": "8da5cb5b",
    "pause()": "8456cb59",
    "paused()": "5c975abb",
    "payPeriodSeconds()": "9abb4742",
    "refund(uint256)": "278ecde1",
    "registerEmployee(address,uint256)": "ca682897",
    "releaseSalary(address)": "11e95335",
    "renounceOwnership()": "715018a6",
    "requestAdvance(uint256)": "c70e1972",
    "token()": "fc0c546a",
    "totalFunded()": "ad044f49",
    "totalRefunded()": "d9082962",
    "totalWithdrawn()": "4b319713",
    "transferOwnership(address)": "f2fde38b",
    "unpause()": "3f4ba83a",
    "updateEmployee(address,uint256,bool)": "90b70b90",
    "withdraw()": "3ccfd60b"
  },
  "id": 34
}